:020000041000EA
:1000000000B5324B212058609868022188439860DF
:10001000D860186158612E4B002199600221596106
:100020000121F02299502B49196001219960352056
:1000300000F044F80222904214D00621196600F024
:1000400034F8196E01211966002018661A6600F04E
:100050002CF8196E196E196E052000F02FF8012189
:100060000842F9D1002199601B49196000215960AB
:100070001A491B48016001219960EB211966A021F2
:10008000196600F012F800219960164914480160C1
:100090000121996001BC002800D000471248134993
:1000A000086003C880F30888084703B5996A0420EC
:1000B0000142FBD001200142F8D103BD02B5186610
:1000C0001866FFF7F2FF186E186E02BD00000240BE
:1000D000000000180000070000035F00212200005C
:1000E000F4000018222000A00001001008ED00E03C
:1000F00000000000000000000000000074B24E7A12
:1001000000200420F7010010CB010010CD010010E9
:10011000C9010010C9010010C9010010C901001077
:10012000C9010010C9010010C9010010CF01001061
:10013000C9010010C9010010D1010010D301001045
:10014000C1010010C1010010C1010010C101001067
:10015000C1010010C1010010C1010010C101001057
:10016000C1010010C1010010C1010010C101001047
:10017000C1010010C1010010C1010010C101001037
:10018000C1010010C1010010C1010010C101001027
:10019000C1010010C1010010C1010010C101001017
:1001A000C1010010C1010010C1010010C101001007
:1001B000C1010010C1010010C1010010C1010010F7
:1001C000EFF30580103800BE00BE00BE00BE00BECA
:1001D00000BE00BEF2EB887130570210505702107B
:1001E0003802001090A31AE71E481F49086006C88D
:1001F00081F3088810471D480068002801D019487D
:10020000F3E70DA40ECC002902D000F012F8F9E7B4
:100210001749184A002000E001C19142FCD116495B
:100220008847164988471649884700BEFDE701C937
:1002300001C29A42FBD3704750570210C000002001
:1002400050150020E06B0210000004200000042084
:10025000E06B0210001004200010042000000000D9
:10026000704700000000000008ED00E0000000D032
:1002700050150020D86D0220957800101909001043
:1002800055780010F8B5C04606480749091A8B1082
:10029000C90FC91810B5491003D0044B002B00D06A
:1002A000984710BD50150020501500200000000098
:1002B000054B10B5002B03D00449054800E000BFF2
:1002C000FFF7E2FF10BDC04600000000904500208F
:1002D000203E0110F0B5CE46474680B591B00022D1
:1002E00000230E920F930C920D931022002108A868
:1002F00006F076F9D0231B065E68F600F60F05E0DF
:10030000874807F0EBFB14200BF088FF00F048FE55
:10031000D0231B065C68E400E40FA642F3D08148BA
:1003200007F0DCFBFA2080000BF078FFD0231B06DF
:100330005D6880235B051D402B005A1E9341DFB290
:10034000A342DDD1784807F0C9FB002D75D077486E
:1003500007F0C4FB7648774900F012FDFA208000D0
:100360000BF05CFF00F0C4FB00F026FC724B197828
:10037000C9B2724B1A78D2B2714B1B78DBB271489A
:10038000007800284CD07048844670480478704843
:10039000057870480678704803960295FA25ED00B6
:1003A000A846444401946446009407F0C7FB102318
:1003B00008AA0CA90EA800F06DFE002833D00E9AF2
:1003C0000F9B66480C9C0D9D0094019507F0B6FBB1
:1003D000594B1978C9B2594B1A78D2B2584B1B787D
:1003E000DBB2584806785B48007884465848007865
:1003F000804656480078814659480C9C0D9D0694CD
:1004000007950E9C0F9D049405954C460394444615
:10041000029464460194009602F02AFC3E0072E7C2
:1004200050488446B1E7002200230E920F930C92AD
:100430000D934D4807F052FBCAE74C4807F04EFBBE
:10044000FA213B48490000F09BFCFA2080000BF0A9
:10045000E5FE00F04DFB00F0AFFB374B1978C9B259
:10046000364B1A78D2B2364B1B78DBB298463548F9
:10047000007800284DD0344D34480478344806784C
:100480003448007884463A48634603930296FA2338
:10049000DB009C46644401940095434607F04EFB04
:1004A000102308AA0CA90EA800F0F4FD002832D0F1
:1004B0000E9A0F9B29480C9C0D9D0094019507F006
:1004C0003DFB1D4B1978C9B21C4B1A78D2B21C4B9C
:1004D0001B78DBB21B4806781E48007884461C480F
:1004E0000078804619480078814622480C9C0D9D72
:1004F000069407950E9C0F9D049405954C46039415
:100500004446029464460194009602F0B1FB3E001A
:10051000F9E6144DB0E7144807F0E0FAD1E7C04619
:10052000703E0110283E0110543E01108C3E011017
:10053000600D0020DC050000CA6D0220D16D022094
:10054000D46D0220C76D0220203E0110D66D02201E
:10055000D26D0220C96D0220A43E0110F03E0110B0
:10056000243F0110243E01100C3F0110343F0110C4
:100570004C3F0110983F0110F0B5DE4657464E46FD
:100580004546E0B59DB0C74807F0A8FA00231B9385
:1005900000241A940022002318921993169217939C
:1005A0001022002112A806F01BF8002311931094CA
:1005B000BD4B0F9300230E939A460D931F008AE0C4
:1005C0000135C0239B009D4217DAB84BAA00D458CE
:1005D000B749201C05F00EFF0028F1D0311C201C6B
:1005E00005F0FAFE002800D0261C391C201C05F05E
:1005F00001FF0028E4D0271CE2E73C1C4746AB4A39
:10060000C823DB009046D3589946100002F016FC30
:10061000051C1AAB00931BABA64A011C404602F016
:1006200055FC089080467A1C9346301C05F016FF56
:100630000A900B91A04E484605F010FF04900591DA
:10064000281C05F00BFF02900391201C05F006FF0B
:10065000009001910A9A0B9B3900300007F06EFA66
:100660000D9A002A4ED14246002A44D001229446D7
:10067000E2449248514607F061FA5246022A00DCF1
:100680000DE11A98291C05F056FE041C10901B9AC7
:1006900011929046100005F0B7FE211C05F050FEA7
:1006A000071C0F90201C05F0D9FE04000D00844E9D
:1006B000381C05F0D3FE0090019122002B0041462A
:1006C000300007F03BFA089B0D935F4600230E9322
:1006D000C8200BF0A3FD00F063FC744802F022FB7D
:1006E0000028F5D0774807F0F9F90025764C774EC9
:1006F000B846271C65E7764807F0F0F95F46002307
:100700009A46E5E74346002B39D01A98291C05F094
:1007100012FE071C1B9B9846180005F075FE391C3D
:1007200005F00EFE061C381C05F098FE0890099195
:10073000301C05F093FE04000D00664800940195FE
:10074000089A099B414607F0F9F9311C0F9805F00A
:1007500043FE002803D15F4600230E93B8E71B9B9E
:10076000190011935C4800940195089A099B07F0C1
:10077000E5F910970F965F4600230E93A8E70E9BAE
:1007800001331C000E935548190007F0D7F9022CCD
:1007900001DC5F469CE700F0ABF900F00DFA109821
:1007A00005F05CFE04000D004D4E0F9805F056FE5E
:1007B0000090019122002B001199300007F0BEF942
:1007C000484B1978C9B2484B1A78D2B2474B1B78BC
:1007D000DBB2984646480078002854D0454D46483C
:1007E000067846480778464804784648FA23DB00EE
:1007F0009C4664440394029701960095434607F093
:100800009DF9102312AA16A918A800F043FC00288D
:100810003BD0189A199B3C48169C179D0094019553
:1008200007F08CF92F4B1978C9B22F4B1A78D2B236
:100830002E4B1B78DBB22E480678304807782E48BE
:10084000007884462E48007880463048169C179DD4
:1008500006940795189C199D0494059544460394A5
:10086000644602940197009602F002FA089B0D93E9
:100870005F4600231193002310930B4B0F9300232B
:100880000E939A4624E7224DA9E7002200231892EE
:100890001993169217931F4807F020F9C2E75F4695
:1008A00016E7C046A83F0110000080BF7435002045
:1008B0000000FAC300007041E43F01102C40011019
:1008C0005C400110C03F011000007AC400007A446F
:1008D000B0400110CC4001102441011078410110BA
:1008E000A8410110CA6D0220D16D0220D46D0220F2
:1008F000C76D0220203E0110D26D0220C96D02207A
:10090000D66D02200C420110F03E01105042011041
:10091000243E01100C3F011030B583B007F0DAF827
:10092000254803F0F1FA00F0C3F802231E22052146
:10093000032000F01BF91A220F21042000F062F9B5
:100940001E4800F041FA00F00BFB02F015F91C20E4
:1009500002F0E4FBD0231B06802252059A6200F0CD
:100960002BF9174B1878C0B2164B1978C9B2164B31
:100970001A78D2B202F01CF9002819D1134807F0F6
:10098000ADF88022124913480025019501240094F6
:10099000002352000BF04CFA80220F490F480195BA
:1009A0000094002352010BF043FA0BF087FAFEE7A4
:1009B0000B4807F093F8E4E7983A0000600D002038
:1009C000C96D0220D26D0220D66D02206042011056
:1009D00090420110D5020010A042011079050010CC
:1009E0007842011030B585B00C0015000F236B4420
:1009F0001870104B1868002815D0012300930F229F
:100A00006A4468210CF0AAFB00280FDB094B186828
:100A1000002300932B00220068210CF0ABFB002880
:100A200006DB012000E0002005B030BD0020FBE720
:100A30000020F9E71426002070B586B014000F4B93
:100A40001D68002D16D0082A02D9002006B070BDFE
:100A500003AE30700D20684405F0C8FD631C002211
:100A600000923200682128000CF078FB002803DB9C
:100A70000120EBE70020E9E70020E7E7142600204B
:100A80000F23034000098200801840001818C0B2EC
:100A9000704770B505000A2103F044FFC4B20A2173
:100AA000280003F03FFF24012143C8B270BD0000BD
:100AB00010B50C4B0C4818600C490CF025FB0321B9
:100AC000002002F0E3FA0321012002F0DFFA002205
:100AD0000121002002F0F4FA00220121012002F09D
:100AE000EFFA10BD14260020400E0020801A0600E8
:100AF00030B583B0032201A90020FFF773FF00285F
:100B00001BD001AD28787F242040FFF7B9FF134B9D
:100B1000187068782040FFF7B3FF114B1870AC785D
:100B200063060CD51F202040FFF7AAFF0D4B18705D
:100B30006411012323400C4A137003B030BD3F20E1
:100B40002040FFF79DFF074B18701A78D2B20B2395
:100B500093429B415B42044A1370EEE7D46D02203E
:100B6000D16D0220CA6D0220C76D0220F0B583B09E
:100B700005000E0010001C00FFF78BFF01AF38705E
:100B80003000FFF786FF78702800FFF782FF002C07
:100B90000AD060231843C0B201A988700322002044
:100BA000FFF74AFF03B0F0BD20239843C0B24023B3
:100BB0001843C0B2F0E7000010B582B0032201A9CB
:100BC0000420FFF70FFF002813D001AC23783F204B
:100BD0001840FFF755FF084B187063781F20184026
:100BE000FFF74EFF054B1870A078FFF749FF044B45
:100BF000187002B010BDC046C96D0220D26D02202F
:100C0000D66D022070B582B00E001500FFF741FFCF
:100C100001AC20703000FFF73CFF60702800FFF748
:100C200038FFA070032221000420FFF705FF02B067
:100C300070BD0000F0B50B4E840023189B0000250A
:100C40009D5123189B00B44663449D60DD608D6810
:100C50001D614D685D600B6813432418A400A35107
:100C6000F0BDC04600000540002303604360836080
:100C700010334360014B83607047C046FFFF0000A4
:100C800083001B189B000948844663441000002918
:100C90000AD01004064A19684840104080225201C8
:100CA0009446634418607047024AF4E70C0005401C
:100CB0000000FFFFFFFF0000884202D3904202D8ED
:100CC00070470800FCE71000FAE7000070B584B038
:100CD0000400C079042102F0D9F9E2791F2A2AD848
:100CE000510807230B402372012313406372224BE8
:100CF0006381052003F06CFB05F081FB051C608916
:100D0000013005F07CFB1D4905F035FB011C281C5A
:100D100005F01BFB051CFE21890505F05DFB002885
:100D20000ED18721C905281C05F064FB002809D0D5
:100D30008725ED0506E0510803230B400833D2E771
:100D4000FE25AD0501AE3000FFF78EFFF4218905C9
:100D5000281C05F0F5FA8321C90505F00CFB05F008
:100D600075FB029063890393207A01223100FFF71B
:100D700061FF04B070BDC0461F4E00000000484235
:100D800070B504000800002C1AD0A37B002B17D0EC
:100D900062882188FFF790FFA08165896B1C58430A
:100DA000084903F0BFFD854200D228000004000C72
:100DB000854200D30500207A617AAAB2FFF760FF6E
:100DC00070BDC046204E000010B5041E12D0FA239C
:100DD0005B000380084B4380084B8380B4238371FE
:100DE000FFF774FFA388A3810123A3732188200048
:100DF000FFF7C6FF10BDC046C4090000DC050000B7
:100E000082B000226B46D91D06E08369DB06FCD464
:100E100003680B7001320131002AF6D06B46D87995
:100E200002B07047F0B5C64600B505000E001700C9
:100E300098462C780A3CE4B2162C05D8224BE340A5
:100E4000DB0701D50135F4E720490622280011F01F
:100E5000E7FA002806D01E490622280011F0E0FA21
:100E600000282FD11B49280011F00EFB010000249F
:100E700008E0300011F06EFB1649002011F004FB71
:100E800001000134002919D0062CF5D8A300124A1C
:100E9000D3589F46380011F05DFBEDE7404611F056
:100EA00059FBE9E7069811F055FBE5E7079811F0C3
:100EB00051FBE1E7089811F04DFBDDE7012080BC14
:100EC000B846F0BD0020FAE709004000B842011022
:100ED000C0420110C8420110105D0110F0B5C646B5
:100EE00000B588460FF0B2FE04000D0000221A4B38
:100EF00003F065FF04F010F806006420704303F06F
:100F0000F3FF02000B002000290003F046FF04005D
:100F10000D00300003F0E8FF06000F0000220F4B29
:100F20002000290003F04BFF02000B0030003900C5
:100F300003F03CFF04000D0043461B78532B01D007
:100F4000572B03D1802109066B181D0020002900B2
:100F500080BCB846F0BDC0460000594000004E407D
:100F600010B596210C4C8901200003F07FF9022175
:100F7000042002F08BF80221052002F087F8236B91
:100F8000C02212021340054A1360002301220821E7
:100F9000200003F041F910BD008003403090034071
:100FA000F0B5C64600B596B04BE0324B1B68324CEC
:100FB0000025E55408AE10220021300005F010FB9A
:100FC00005950CAF14220021380005F009FB0695A9
:100FD00011AB984614220021180005F001FB07957B
:100FE00007AB02934346019306AB00933B0005AA6F
:100FF00031002000FFF716FF002803D005AB1B7857
:10100000412B03D01B4B00221A601AE006A93800BE
:10101000FFF764FF194B1860596007A94046FFF7B6
:101020005DFF174B18605960164A174833001021AE
:1010300006F0CCFB154B01221A70E3E70D4B0022A2
:101040001A60134B9B69DB0610D41148FFF7D8FEDA
:101050000D28F6D00A28A8D0064B1B687E2BEDDCA5
:10106000044A591C1160044AD054EAE716B080BC07
:10107000B846F0BD645C0020E45B00202819002025
:1010800030190020CC42011078450020CF6D02209D
:1010900000800340F0B583B0040010000193104BB2
:1010A0001D78002D12D0002C04D00E4B1E685F68F6
:1010B00026606760002904D00B4B1E685F680E60D5
:1010C0004F60002802D0019B002B02D1280003B002
:1010D000F0BD064B064A019906F078FBF6E7C046DC
:1010E000CF6D0220281900203019002078450020FB
:1010F000CC42011010B50022002302E00133DBB224
:101100002032C02189008A420DDA51000C5A074969
:101110008C42F3D101211940054C045BA142EDD171
:101120000820404200E0002010BDC046FF7F0000C4
:101130008206000002882B4B9A4243D00823122BD0
:1011400006DC5A00115A274A91423ED00133F6E795
:10115000142300E00133162B07DC5A00115A214AF0
:101160009142F7D10820404231E0182300E00133DA
:10117000202B07DC5A00115A1A4A9142F7D1082055
:10118000404224E02823322B06DC5A00115A154A2B
:1011900091421DD00133F6E73423362B06DC5A008A
:1011A000115A104A914216D00133F6E738233F2BEB
:1011B00006DC5A00115A0B4A91420FD00133F6E770
:1011C000002004E00820404201E00820404270472F
:1011D00008204042FBE708204042F8E70820404250
:1011E000F5E7C046FF7F00006623C05A020A52B2EC
:1011F00099330340013BFF3B9BB25B019BB2034829
:101200008446634452010A804B80704700E0FFFF30
:10121000F0B5C64600B506000C006423C55AA80AFE
:1012200005F0F2F8071C204905F0E4F8002805D085
:101230008521C905381C05F07EF8071CE6218905C3
:10124000381C05F098F8071CA805800D05F0DCF89F
:10125000051C164905F0CEF8002805D08921C905DE
:10126000281C05F068F8051CF8218905281C05F0E4
:1012700082F8051C6223F35A9846338C1B0B180323
:1012800003F032FE00220A4B03F0B7FD0022094BA7
:1012900003F08CFD03F0A8FE6760A5604346A381C0
:1012A000206180BCB846F0BD0000F8410080FF43DB
:1012B0000000103F000020406023C35E8B82704717
:1012C00010B50C007823C05605F09EF8F42189056E
:1012D00005F051F8A06110BD7023C25A120B6D3B8E
:1012E000134024228B54704710B50C007823C05A49
:1012F000000A40B205F088F8E421890505F03BF8C2
:10130000A06210BDF0B5C64600B505000C007E20F9
:101310002B5A1B13032119408B00C9184023282284
:101320005242E25202330022E2522B5A1B110F2684
:10133000334044329446A3522A5A1212324046276E
:10134000B846E25349004B436746E3534A439B1870
:101350004246A35248234B32FF32E2522B5A3340CB
:1013600008337D3898403637EB57984605F04CF8EF
:10137000061C404605F048F8311C04F0E6FFE06228
:10138000E85B000A40B205F03FF8311C04F0DDFFD5
:1013900020630237E85705F037F8311C04F0D5FF19
:1013A0006063E85B000A40B205F02EF8311C04F0DF
:1013B000CCFFA063024BE36380BCB846F0BDC046DF
:1013C00017B751B9F0B5DE4657464E464546E0B52B
:1013D000BDB003000190080019001B8C0F261A00F5
:1013E000324090461F11374002971B0A1E40039659
:1013F0004B8C9C46002120E08B000A0012325200E8
:10140000019C125B0F24A1461440A24624AC0E019D
:10141000554635515E1C15114F463D40B6003551BD
:101420009E1C1512AB464D465F463D40B6003551F9
:101430000333120B9B001A5101310529DCDD002317
:1014400000E00133172B09DC9A0024A95258072A1F
:10145000F7DD103A990024AC0A51F2E7002120E0B0
:101460008B000A0018325200019C125B0F24A14627
:101470001440A24604AC0E01554635515E1C1511B0
:101480004F463D40B60035519E1C1512AB464D46A9
:101490005F463D40B60035510333120B9B001A5195
:1014A00001310729DCDD002300E001331F2B09DCBB
:1014B0009A0004A95258072AF7DD103A990004ACA3
:1014C0000A51F2E700243AE0C922920091464B44C7
:1014D0005B00C31804229E5E424696409E80A20096
:1014E00024AD5259039DAA40624492B28D00AB468E
:1014F00004AD5F467D59029FBD40AA46524492B258
:10150000B5B2A9464A449A8001311F2916DC63010D
:101510005B181A0040325200019D525B960AC925A1
:10152000AD00A94699444D466D00A94681444D46FB
:10153000AE801F2EC8DD403EAE80C5E70134172CBB
:1015400001DC0021E1E73DB0F0BCBB46B246A94654
:10155000A046F0BDF0B5CE46474680B585B00D003B
:10156000848A2411E4B2E4437F239C43E4B2153B14
:10157000C65A3F20304004F047FF071C019029491C
:1015800004F038FF002805D08521C905381C04F077
:10159000D2FE01900198F621890504F0ECFE804608
:1015A0000190B3111F20184004F02EFF071C029079
:1015B0001D4904F01FFF002805D08421C905381CEF
:1015C00004F0B9FE029001AB99460298FC2189050E
:1015D00004F0D1FE071C4B465860F00A04F014FFDB
:1015E000061C4B469860104904F004FF002805D003
:1015F0008421C905301C04F09EFE03900398F82155
:10160000890504F0B8FE03902523EC54074B4246AD
:10161000EA500433EF50064BE85005B0C0BCB94661
:10162000B046F0BD0000F841000070415C120000BF
:101630006412000010B543094A095C01001B80B226
:101640005401091B89B29B1A0133022B05D8401A99
:101650000130022803D9002000E0002010BD062040
:101660004042FBE7F8B5DE4657464E464546E0B5F4
:101670000D0000230CE04E4A9A1852000121494205
:1016800051534C4A9A185200AA18518001339BB208
:10169000042BF0D90027002600230AE0D20706D544
:1016A000444ABA185200AA1853800137BFB2013316
:1016B0009BB2C0229200934210D2042E0ED8042F67
:1016C0000CD81A0040325200125A002AE6D1384A89
:1016D000B218520053530136B6B2E8E7042E59D877
:1016E000042F5FD8B046BB46F319042B5DDC002005
:1016F00000239A46B24517D2D14653465C1CA045FA
:101700000DDD2B4BE3185B00595B294B4B445B0011
:10171000585BFFF78FFF00283ED10134EFE75346B7
:1017200001339BB29A46E5E700239946B94519D2A1
:10173000C8464B465C1CA3450FDD1E4BE3185B00FF
:10174000EB1859881B4B43445B00EB185888FFF794
:1017500071FF002820D10134EDE74B4601339BB2E5
:101760009946E3E70027B74216D20024A3450EDDD1
:10177000104BE3185B00EB1859880D4BFB185B000E
:10178000585BFFF757FF002806D10134EEE7013719
:10179000BFB2E8E703204042F0BCBB46B246A946D0
:1017A000A046F8BD04204042F6E705204042F3E79A
:1017B0003409000038090000F0B5DE4657464E46B1
:1017C0004546E0B58BB004000D004023C35A1B0B07
:1017D0001B22914699447423C35A9A05910D07A878
:1017E000018080208000814204DB5D4A9446614490
:1017F00007AA11809A0A07A94A801F2A01DD403AE8
:101800004A8007AB5A880020195E04911988521843
:1018100012B290465A807223E35A9A469805800D78
:1018200004F0F2FD061C08904E4904F0E3FD002888
:1018300005D08921C905301C04F07DFD0890089869
:1018400004F00CFE06000F00484603F049FB0200BE
:101850000B0000208021C90503F01CFF02000B00D3
:101860003000390003F0ABFA03F0BEFB814608906C
:101870005346980A04F0C8FD061C09903A4904F042
:10188000B9FD002805D08521C905301C04F053FDA1
:1018900009900998F021890504F06DFDFE21890564
:1018A00004F04EFD011C484604F065FD01900990CE
:1018B00076218A46605604F0A7FD059070218B467C
:1018C000605A001161390840083003F009FB02003A
:1018D0000B0000268027FF053000390003F0DAFEF8
:1018E00002900391059804F0B9FD029A039B03F05E
:1018F00066FA03F079FB28625046205A000A40B28B
:1019000004F082FD82465846205A000A0F21084002
:1019100003F0E6FA02000B003000390003F0BAFED3
:1019200006000F00504604F099FD32003B0003F022
:1019300046FA03F059FBE8610C4B4946E9500C4B61
:10194000019AEA500B4B049AEA520B4B4246EA5278
:101950000BB0F0BCBB46B246A946A046F0BDC0469F
:1019600000FCFFFF0080FF430000F8415012000020
:1019700054120000581200005A120000F0B5DE4662
:1019800057464E464546E0B5BD4CA544844689467B
:101990004021425A405C3139084001901011084002
:1019A0000290100A01400391120B1E239B469344A0
:1019B000422263469B5A0493002765461DE0BB0004
:1019C0003A0022325200525B0F200F241440C821EB
:1019D000090106AEB44661443E0174505C1C161108
:1019E0000640A40066509C1C16123040A4006050B3
:1019F0000333120B9B005A500137052FDFDDAC4635
:101A0000002200E00132172A0FDC9300C8210901EF
:101A100006A8804641445B58072BF3DD103B91003C
:101A2000C820000140440B50ECE7002765461DE04C
:101A3000BB003A0028325200525B0F200F241440A2
:101A4000C021090106AEB44661443E0174505C1CDD
:101A500016110640A40066509C1C16123040A400CB
:101A600060500333120B9B005A500137072FDFDD04
:101A7000AC46002200E001321F2A0FDC9300C02197
:101A8000090106A8804641445B58072BF3DD103B53
:101A90009100C020000140440B50ECE700239A461F
:101AA0006346059389E006ADA40066590120019BB9
:101AB000984004F0A9FC311C04F05DFC061C605148
:101AC00053469B00C8221201AC4662449858039BBF
:101AD0009840049B9C46604443469A00C0231B01E7
:101AE000AC466344D358029A9340C01804F08CFC6F
:101AF000311C04F025FC605104F0B0FC06000F001E
:101B0000584603F0EDF902000B0000208021C905C2
:101B100003F0C0FD02000B003000390003F04FF964
:101B200003F062FA061C60514B469F69554B4A46CA
:101B3000D058554BD15804F003FC011C381C04F05C
:101B40001AFCFC21890504F016FC011C301C04F071
:101B5000F2FB605104F082FC02000B004B484C4940
:101B600003F02DF903F040FA285101239C46E0448C
:101B700043461F2B1EDC53465C0144442300403384
:101B80005B00059A9B5A1B113F20184004F03CFC57
:101B9000051CA20006ABD0503E4904F02BFC0028E7
:101BA00081D08521C905281C04F0C5FBA30006AA25
:101BB000D05078E701239C46E2445346172B02DCC1
:101BC00000239846D4E7069E012400E00134C02398
:101BD0009B009C420ADAA30006AA9D58311C281CCF
:101BE00004F008FC0028F1D02E1CEFE7002706E0E7
:101BF000311C301C04F0A4FB061C0137FFB2301C62
:101C000004F02CFC244A254B03F042F90028EFD1C4
:101C1000002626E0B20006ABD05804F01FFC0400FA
:101C20000D00380003F05CF902000B000020802159
:101C3000C90503F02FFD02000B002000290003F06E
:101C4000DCF803F0D1F904F009FC0022144B03F096
:101C5000ADF83400243464004C4403F081F9608012
:101C60000136C0239B009E42D4DB0E4B4A46D7541C
:101C70000D4B9D44F0BCBB46B246A946A046F0BD04
:101C800004F3FFFF50120000541200008DEDB5A0C8
:101C9000F7C6B03E0000F8419A999999D9FFDF4004
:101CA0000000E03F4A060000FC0C0000F0B5DE46F4
:101CB00057464E464546E0B5874CA5448246884681
:101CC0006C23C25A110A854B02A8844663441970DA
:101CD0009A706E2251468A5A110A5970DA7070232E
:101CE0005246D15A0B110F221340082083469B44C1
:101CF0001140009100239946434601936BE003ACE9
:101D0000AD002F590120009B984004F07DFB391C49
:101D100004F031FB071C2851704B02AA944663441F
:101D2000985704F071FB391C04F00AFB285104F0A9
:101D300095FB06000F00584603F0D2F802000B0096
:101D400000208021C90503F0A5FC02000B00300033
:101D5000390003F034F803F047F9605101239C4641
:101D6000E04443461F2B33DC4B465D014544EA17F4
:101D70001F261640761976113F2313405B199B11DD
:101D80005B00F61A7600F6B2D30FE91801220A407A
:101D9000D21AD2B2B618F6B22B0040335B005246CC
:101DA0009B5A5B100720184004F02EFB041CAA006D
:101DB00003ABD0504A4904F01DFB00289FD082217C
:101DC000C905201C04F0B7FAAB0003AAD05096E76F
:101DD00001239C46E1444B46172B02DC0024A0461D
:101DE000BFE7019B9846039E76007608012500E038
:101DF0000135C0239B009D420CDAAB0003AA9C581E
:101E000064006408311C201C04F0F4FA0028EFD0B0
:101E1000261CEDE7002706E0311C301C04F090FA88
:101E2000061C0137FFB2301C04F018FB2D4A2E4B64
:101E300003F02EF80028EFD100260FE0201C04F05C
:101E40000DFB0022294B02F0A8FF43469C19284BAA
:101E50009C46644403F060F820700136C0239B0068
:101E60009E422EDAB30003AA985804F0F7FA040051
:101E70000D00380003F034F802000B000020802130
:101E8000C90503F007FC02000B002000290002F046
:101E9000B4FF03F0A9F8041C002104F09DFA002807
:101EA000CCD1201C04F0DAFA0022104B02F07EFFA5
:101EB00043469C190E4B9C46644403F02DF8207059
:101EC000CBE70C4B4246D7540B4B9D44F0BCBB4672
:101ED000B246A946A046F0BDECF3FFFF040C00009B
:101EE000000040403333333333B34F400000E03F12
:101EF0004C0C00004C0F0000140C0000F0B5DE4646
:101F000057464E464546E0B5794CA5448946682378
:101F1000C35A190B0A00072900DD103A75496944B4
:101F20000A70191249B20F220A40090701D5103A66
:101F300052B2704969448A70191149B20F220A409D
:101F4000090701D5103A52B26A4969444A705BB236
:101F50000F221A401B0701D5103A52B2654B6B4451
:101F6000DA707023C35A1B0A0F221A4090460023CE
:101F70009B4602E001239C46E3445B46172B3DDC75
:101F800000241F2CF6DC5B465E013619F2171F2376
:101F900013409B195B113F21114089198911490098
:101FA0005B1A5B00DBB2D10F701801220240521A9B
:101FB000D2B29B18DBB24F4A6A44D05604F024FADE
:101FC00001AB9A46B500E85004F048FA06000F004D
:101FD000404602F085FF02000B0000208021C90569
:101FE00003F058FB02000B003000390002F0E7FE5E
:101FF00002F0FAFF534658510134C2E7019E7600C1
:102000007608012500E00135C0239B009D420CDAD3
:10201000AB0001AA9C5864006408311C201C04F029
:10202000E9F90028EFD0261CEDE7002706E0311C77
:10203000301C04F085F9061C0137FFB2301C04F097
:102040000DFA2D4A2D4B02F023FF0028EFD1002678
:102050000FE0201C04F002FA0022294B02F09DFE42
:102060004B469C19274B9C46644402F055FF207058
:102070000136C0239B009E422EDAB30001AA985875
:1020800004F0ECF904000D00380002F029FF020012
:102090000B0000208021C90503F0FCFA02000B00B0
:1020A0002000290002F0A9FE02F09EFF041C00217E
:1020B00004F092F90028CCD1201C04F0CFF90022C2
:1020C0000F4B02F073FE4B469C190E4B9C4664442A
:1020D00002F022FF2070CBE70B4B4A46D7540B4B44
:1020E0009D44F0BCBB46B246A946A046F0BDC046E2
:1020F000F4F3FFFF040C00003333333333B34F40AA
:102100000000E03F4D0F00004D1200000C0C0000DD
:1021100070B5A2B005000C00002303E021AB1A88C3
:1021200008231340002B0AD1802121AB0122090290
:10213000280000F0F9FC0028F0D022B070BD80210A
:1021400030220902280000F0FBFC431CF5D0C0221D
:10215000802123009200C900280000F0E5FC00283F
:10216000EBD1E02101AB4022C900280000F0DCFCEB
:102170000028E2D186266E4433000122154928004A
:1021800000F0D2FC3288D023DB00E25221AB1A8867
:1021900001231340104AA3520028CED101A8FEF714
:1021A000C9FF002814D02000FEF7A4FF0028C4D1E6
:1021B000094BE05AC1E7C02292009A185200580019
:1021C00001A9415AA1520133DBB23F2BF3D9EAE70F
:1021D0000023FAE70D8000008206000070B50400BD
:1021E0000D00FFF701F829002000FFF711F8290082
:1021F0002000FFF761F829002000FFF761F82900AF
:102200002000FFF769F829002000FFF76DF829008A
:102210002000FFF777F829002000FFF7CDFA29000A
:102220002000FFF7ABFB29002000FFF7CBF82900C7
:102230002000FFF73BFD29002000FFF75FFE29008B
:102240002000FFF787F929002000FFF70BFA70BD87
:10225000F0B5D64600B582B007000E00D023DB00F3
:10226000C35A9B0A03221A4092462423C85C02F0F8
:1022700037FE02000B0000248025ED052000290018
:1022800003F008FA00900191504602F029FE020086
:102290000B002000290003F0FDF902000B0000985C
:1022A000019902F08CFD02F09FFE041C124BF85EB7
:1022B00004F0AAF8211C04F05EF8041C0223F05E6E
:1022C00004F0A2F8011C201C04F035F8041C0023C3
:1022D000F05E04F099F8011C201C04F036F804F0BC
:1022E000BDF8064A064B02F061FD02F07DFE02B029
:1022F00080BCBA46F0BDC0465406000066666666FD
:1023000066660A40F0B5C64600B504000E00FFF749
:102310009FFF8046C823DB00E05E04F075F8051CD3
:10232000316904F028F8071CC023DB00E05E04F0EC
:102330006BF8391C04F004F8011C281C04F005F8A3
:102340009121C90504F017F8071C706804F086F89D
:1023500004000D00404604F081F8164A164B02F0C6
:102360001CFD02000B002000290002F046FD0022A7
:10237000124B02F01BFD04000D00381C04F06EF837
:1023800022002B0002F01BFD04000D00B08902F0BA
:10239000ABFD02000B002000290002F0FEFC02F061
:1023A00023FEB16803F0D1FF054903F0C9FF80BCEB
:1023B000B846F0BD6666666666660A400000F03F95
:1023C0000000C841F0B5DE4657464E464546E0B5EA
:1023D00099B083468A46161C11921C1CCF4BC35AD7
:1023E0000C93FFF735FF089051465846FFF78AFFD8
:1023F000814604F033F8CA4ACA4B02F0D7FC02F017
:10240000F3FD011C03F0B7FF011C03F0B4FF051C32
:10241000201C04F023F8C24AC24B02F0C7FC02F0B1
:10242000E3FD011C03F0A7FF011C03F0A4FF041C43
:10243000291C03F080FF311C03F087FF011C201CC6
:1024400003F079FF0390B84B5246D05C02F048FD90
:1024500002000B0000248025ED052000290003F078
:1024600019F902F0C1FD0D90B04B5246D05C02F05C
:1024700037FD02000B002000290003F00BF902F0E9
:10248000B3FD0E90AA4B5246D05C02F029FD02002B
:102490000B002000290003F0FDF802F0A5FD0F90CD
:1024A0005346D86AA34903F066FFFE21890503F06D
:1024B00047FF011CFE20800503F047FF1290FE2617
:1024C000B605139653461C6B44235246D75E38001C
:1024D00003F09AFF211C03F04EFF311C03F030FF84
:1024E000041C149053465B6B984646235246D05EBC
:1024F000C01B03F089FF414603F03DFF311C03F090
:102500001FFF011C201C03F036FF159053461420BA
:10251000185E03F079FF041C874B5A46D05E03F027
:1025200073FF011C201C03F010FF071C1090D02328
:10253000DB005A46D35A5B090493DBB27F229343F4
:102540000993C223DB005946C85E03F05DFF391CC6
:1025500003F011FF041C1690CA23DB005D46E85E01
:1025600003F052FF391C03F006FF071C1790201CD4
:1025700003F074FF00900191704B5146CC5E5146C0
:102580000D6A6F49484603F0D6FE011C0590281CD1
:1025900003F0F1FE311C03F0D3FE061C200003F013
:1025A00033FF311C03F0E7FE03F058FF069007915C
:1025B0005146C86903F052FF04000D00089803F06B
:1025C0004DFF574A5F4B02F0E8FB02000B000A92F6
:1025D0000B932000290002F010FC00225A4B02F05D
:1025E000E5FB04000D0002000B000698079902F0BD
:1025F00004FC02000B000098019902F0CEFB02F0EF
:10260000F3FC169025235146CB5C099A934227D0C0
:10261000381C03F023FF009001914C4B5246D05ED2
:102620004B4BD75803F0F0FE391C03F089FE011C18
:10263000301C03F0A0FE03F011FF02000B0020008D
:10264000290002F0DAFB02000B000098019902F069
:10265000A4FB02F0C9FC179000231D00D94624E01A
:10266000381C03F0FBFE00900191384B5246D05EBF
:1026700003F0CAFE311C03F07EFE03F0EFFE020001
:102680000B002000290002F0B8FB02000B000098AC
:10269000019902F082FB02F0A7FC1790DCE71F4BC8
:1026A0004A46D35A984255D05D46C0239B009D426E
:1026B00000DBC1E1EC171F222240521952113F23C7
:1026C00023405B199B115B00D21A52B2E30FE8184A
:1026D00001273840C01A5040AE1CF31703210B40AD
:1026E0009B199B10EE1CB446F6170E406644B610BC
:1026F0009B1B6E1CB346F6170E405E44B6109B192A
:102700002140491989105B1A510088467F1A7B4382
:102710005CB2049B1B06C2D41000C0E78206000016
:1027200066666666661271404C0F00004D1200002E
:102730004A06000000002042140600005812000063
:102740000000C84166660A400000F03F5A120000CF
:102750005C12000006956B00985E03F055FE109920
:1027600003F009FE009053465F19B74BFB18002099
:10277000185603F049FE0D9903F0E7FD061CB34B14
:102780009C4667440020385603F03EFE0E9903F045
:10279000DCFD0890C9239B00EB185B005344042721
:1027A000DF5F311C059803F0E6FDFE21890503F08B
:1027B000C7FD061C380003F027FE311C03F0DBFDCB
:1027C00003F04CFE06000F00089803F047FE0A9A3B
:1027D0000B9B02F012FB00229D4B02F0E7FA020075
:1027E0000B003000390002F008FB06000F000098D3
:1027F00003F034FE32003B0002F0CFFA02F0F4FBAB
:10280000061C25235246D35C099A93421CD0914B57
:102810005246D7584046013803F0F6FD391C03F004
:10282000AAFD311C03F08CFD061C93235B0152466C
:10283000D758200003F0E8FD391C03F09CFD011C73
:10284000301C03F078FD061C534698690C9B9B00D6
:1028500016AA995803F08FFD011C301C03F06BFD84
:10286000119903F072FD00900F9803F0F7FD7A4A7A
:102870007A4B02F0C2FA06000F0024356D00554471
:10288000688802F031FB02000B003000390002F0D2
:1028900096FA02F0A9FB041C5346996A059803F0C6
:1028A0006AFDFE21890503F04BFD211C03F063FD49
:1028B0008046011C03F05FFD414603F05CFD041CF3
:1028C0004146039803F057FD009903F039FD011CC0
:1028D000201C03F050FD03F0C1FD02F091FB02F05B
:1028E0008FFB04000D005346186B03F0B7FD060084
:1028F0000F0002000B002000290002F07EFA02F017
:1029000073FB0890564A574B3000390002F075FAB5
:1029100002000B0000204E4902F03FFA04000D00B7
:10292000404603F09BFD22002B0002F066FA0400F3
:102930000D00089803F092FD22002B0002F036FAF9
:1029400004000D00009803F089FD22002B0002F026
:1029500036FA04000D00039803F080FD22002B00DE
:1029600002F024FA02F04CFB02F04AFB3C4A3D4BD9
:1029700002F013FA02F038FB051C42235246D05EE7
:1029800003F042FD291C03F035FD002815D1442336
:102990005246D05E03F038FD291C03F02BFD0028C1
:1029A00046D146235246D05E03F02EFD291C03F08B
:1029B00021FD00283ED0022400E00024A20012AB3A
:1029C000D058414603F0D7FC061C23000A339B0075
:1029D00053445F68203464005346E05E03F014FD06
:1029E000011C281C03F0A7FC011C381C03F0C3FCCD
:1029F000FE21890503F0A4FC011C301C03F0BBFC84
:102A0000011C009803F0A1FC039903F099FC03F06A
:102A100025FD02F0F5FA02F0F3FA114A114B02F02B
:102A2000BCF902F0E1FA069B9B00229AD0503BE6EB
:102A30000124C3E70324C1E719B0F0BCBB46B2468A
:102A4000A946A046F0BDC0464C0C00004D0F00004A
:102A50000000F03F641200008DEDB5A0F7C6B03E57
:102A60006666666666127140F0B5C64600B584B00B
:102A700002AF040090461E003A1D0B0A13705170FD
:102A8000164801230093013321000AF067FB002858
:102A90001EDB7300DA1DD208D20069468A1A9546F9
:102AA00002AD0E48002200922A0021000AF062FBCB
:102AB00000280DDB002108E048002B5C421CAC5CC8
:102AC0001B021C4343461C520131B142F4DB00207F
:102AD000BD4602B080BCB846F0BDC046380E0020EE
:102AE000F8B5CE46474680B58146884617001E0099
:102AF00000240CE020256200BA184346191989B257
:102B00002B004846FFF7B0FF002809DB6419B442E8
:102B100005DA23002033B342ECDD351BEBE7002060
:102B2000C0BCB946B046F8BD10B514001A00230069
:102B3000FFF7D6FF002800D110BD01204042FBE77F
:102B400010B584B0130003AA0C0A14705170190A4E
:102B50009170D370074C00230093043301002000D0
:102B60000AF0FCFA002802DB002004B010BD0120AE
:102B70004042FAE7380E002010B50B480B490AF026
:102B8000C3FA03211A2000F081FA03211B2000F070
:102B90007DFA002201211A2000F092FA0022012180
:102BA0001B2000F08DFA10BD380E0020A086010019
:102BB000F0B595B007000E0003920CA8214C03005D
:102BC00026CC26C326CC26C306CC06C30DF0C6FFF2
:102BD000002827D01C491D4801220CF07BFD011E56
:102BE00025D11B4804F07AFFFA23DB00039A9446B0
:102BF0006344184A04AC019700962021200004F099
:102C0000E5FD1548322221000CF092FD011E13D182
:102C1000124804A904F092FF114B01221A700120FE
:102C200015B0F0BD00210F480EF00AF8D2E70E48AB
:102C300004F084FF0020F3E70C4804F07FFF00203D
:102C4000EEE7C0462C5D01109843011028330020A8
:102C5000E8420110F4420110D01600202043011078
:102C6000CB6D022000002050D0420110084301101B
:102C7000F0B5C64600B5AEB0234C2478002C37D052
:102C8000379EFA24E400A4466644B046349C002CE7
:102C900032D01E4CA4461E4C0EAD3A9E3B9F0A9667
:102CA0000B97389E399F0896099746460696359E9B
:102CB0000596369E0496664603960293019200910D
:102CC000030022008021280004F080FD0400114848
:102CD0000DAB220029000CF08BFE011E02D10D9BD2
:102CE0009C420CD00C4804F029FF0A480CF0A2FFCB
:102CF0002EB080BCB846F0BD084CA446CBE70848CF
:102D000004F0ECFEF1E7C046CB6D0220203E01103E
:102D100038430110D01600209C430110243E0110BE
:102D2000B4430110F0B583B00500384B1C78002C7B
:102D300009D00023C0229200934223DA9A0034493A
:102D4000A9500133F6E7334BD0229021920089013C
:102D50003320FFF7E9FE00280CD12F492D48FFF75B
:102D60003DFA00280AD1294B01221A702B4804F0A1
:102D7000B5FEDEE72A4804F0B1FE43E0294804F03E
:102D8000ADFE3FE0002629E0274804F0A7FE00241E
:102D900038E0264994001E4F67500132C021890057
:102DA0008A42F6DB1C49224C204A0092214A20002C
:102DB000FFF708FB002400E00134C0239B009C4285
:102DC0000BDA1A4BA200D7581B49381C03F012FB30
:102DD0000028F1D0A300EF50EEE70136012E10DC01
:102DE00013493320FFF794F90028CDDB0A49104836
:102DF000FFF788FA8221C90503F09DFA031C00221F
:102E0000CCE70124200003B0F0BDC046CC6D022009
:102E100000C079C41C260020B0450020F4430110F6
:102E2000C4430110D843011010440110785D002004
:102E3000A42C00203333733F0000FAC3F0B5C6461C
:102E400000B50700002400260023984600E0013466
:102E5000C0239B009C420EDAA300DD590D49281CBB
:102E600003F0C8FA0028F2D0291C404603F068FAA3
:102E700080460136EBE7002E09D0300003F0C4FA9B
:102E8000011C404603F061FA80BCB846F0BD00204A
:102E9000FAE7C0460000FAC370B5041C0D1C161CEE
:102EA000094903F09FFA00280CD1311C281C03F0BB
:102EB00047FA0125211C03F08FFA002800D10025D4
:102EC000E8B270BD0020FCE70000FAC3F0B5DE46B2
:102ED00057464E464546E0B5664CA54483460291AA
:102EE00003929846002203E0634B0021995401327B
:102EF000C0239B009A42F7DB002243461A605F4AD8
:102F00005F4B08A98C4663441B681A6000275D4B21
:102F100006934346079397E00134012C27DC2B00EE
:102F20002343F9D0EB194246A218172BF4D8002AF4
:102F3000F2DB1F2AF0DC5B0199184F4B5B5C002B26
:102F4000EAD101918B005A46D058039A0299FFF7B3
:102F5000A3FF0028E0D0484B012201995A540123D5
:102F60009C46E1444B469A0008ABD150D4E701356A
:102F7000012D42DC01246442CFE7059D5746B2464D
:102F8000049E5346022B1BDD0299381C03F0D3F933
:102F9000041C504603F038FA211C03F0D1F9041C3C
:102FA000011C069803F018FA002809D0079B524626
:102FB0001A60334B08AA944663441B681F6006944A
:102FC00001351F2D3EDC74016419A3005A46D75801
:102FD000039A0299381CFFF75FFF0028F0D0264BB8
:102FE0001B5D002BECD10894234B01221A550023C2
:102FF0009946049605951E00BA464B46002BBCDB4D
:103000004B465C1E9A0008ABD358DA171F273900CD
:103010001140C91849118846D20E99180F40BF1A9D
:1030200001369B005A469D585146281C03F0E2F990
:10303000002800D0AA46A14601256D423B00474624
:10304000984695E737000137172F03DC00243E0030
:103050002500B6E7079B1B680120022B00DC00203F
:10306000C0B2094B9D44F0BCBB46B246A946A0463F
:10307000F0BDC046DCF3FFFFB069022000C079C498
:10308000280C0000000080BF240C000010B5830055
:10309000084A9A1814684022544080322240064C54
:1030A000A44663441A60C000044B9C4660444160DF
:1030B00010BDC04604C0014004D0014000400140A2
:1030C00080000C4B9C46604400290ED00823002A47
:1030D0000DD004221343026853400C221340802277
:1030E000520194466044036070470023EFE70022DA
:1030F000F0E7C04604C00140C000064BC3180902F7
:103100001B685940C0239B001940034B9C466044F8
:1031100001607047044001400450014010B5012394
:103120008340D0221206936293610521FFF7AEFF20
:1031300010BD000010B58023DB05186803051B0DCA
:103140000B4A934207D10B4B0340802292019342DA
:1031500007D1000F10BD084B084A0948132104F09D
:103160007DFB084B054A0648142104F077FBC04656
:103170002709000000F0FF0F244401104C5D0110EE
:10318000484401108C4401100FB400B583B00848C6
:1031900004F0A4FC049B002B07D005A901911800A2
:1031A00004F0ACFC034804F099FC012004F034FB6B
:1031B000A04401104C42011010B50148FFF7E4FF94
:1031C000B0440110EFF3108072B6034B1B68002B64
:1031D000FBD0BFF35F8F70472C0100D0BFF35F8F30
:1031E000024B00221A6080F3108870472C0100D037
:1031F000F8B506000C001500FFF7E4FFE308F71828
:10320000F15C07222240012393400B4205D1DBB23F
:103210000B433B70FFF7E2FFF8BD21002800FFF7EA
:10322000B3FFF0B583B00600019114001F00FFF753
:10323000C9FF00E00134BC420CD8E308F518F35C88
:103240000721214001228A401A42F3D1D2B21A4307
:103250002A7001E001246442FFF7C0FF002C02DB6A
:10326000200003B0F0BD019B002BF9D00898FFF7B8
:103270008BFF0000054A1078431CDBB21370172B3C
:1032800002D9130010221A707047C046700D00203A
:1032900010B582B00100054C054B00931F23182286
:1032A0002000FFF7BEFF02B010BDC046B8250020C9
:1032B000C0440110002307E0054A9A189200BFF3AA
:1032C0005F8F0021116001331F2BF5D97047C04675
:1032D00040000034074B9B68103080001950BFF34A
:1032E0005F8FBFF35F8F044B0021196082F310885A
:1032F0007047C04600ED00E0240100D00048704750
:1033000000E400E010B5FFF7F9FF002302E0034AF4
:1033100004C00133072BFAD910BDC04680808080DD
:1033200010B50388DA0A1C2A05D15B055B15023348
:103330005B00C01810BD034B034A8E2103484900AF
:1033400004F08CFADC440110885D0110F444011093
:1033500010B5091A0B1F0A4A88180A4A904208D861
:10336000C90706D45B105B055B0D0748184380B2A4
:1033700010BD064B064A87210648490004F06EFA44
:10338000FC070000FE0F000000E0FFFF38450110C1
:103390007C5D0110F444011001238340034A10684E
:1033A0001840431E9841C0B27047C04600E100E09B
:1033B000002A05D0044BC022520099501960704772
:1033C000014A8023D150FAE700E100E010B50A007D
:1033D0001F230340012199404009FFF7E9FF10BD79
:1033E00001238340014A13607047C04600E200E0B9
:1033F000024B9B6810308000C058704700ED00E021
:1034000010B5FFF7F5FF044BC31A00202F229A4294
:103410004041C0B210BDC046740D002070B504001C
:103420000D00EFF3108672B60C4B1B68002BFBD01F
:10343000BFF35F8F2000FFF7DBFF094B984201D0FD
:10344000A84205D1320029002000FFF743FF70BDDC
:10345000044B054A0548ED2104F000FA240100D090
:10346000C101001068450110B05D0110F444011065
:10347000F0B5DE4657464E464546E0B589B0814632
:1034800001911500EFF3108B72B66F4B1B68002B88
:10349000FBD0BFF35F8F6D4B00269E57002E40DBA5
:1034A0007400A419A4006A4824180622A256674B87
:1034B0001A70684B9A684B4610339B00D358984655
:1034C0001B1A2F2B3BD9644B984531D105AF634B69
:1034D0003B80634973009A46981980005C4B98467C
:1034E00040440230FFF734FF78805E4BBB80FF23FF
:1034F000BB71FD71019B0793330053449B00434410
:1035000007CF07C301231C43A0465A4641464846FD
:10351000FFF7E0FE09B0F0BCBB46B246A946A046A4
:10352000F0BD514B514ABE215148490004F096F973
:10353000504B4E4A84214E48FF3104F08FF901234D
:1035400042469A439246101A0C2101F0EBF90029E9
:103550000FD153460027DA79AA4212D906215956CB
:1035600000290DDB4A005218920039491F008B18C0
:10357000F1E7414B3D4ACA213D48490004F06EF94C
:103580001F00002F2ED005AB3C4A1A80813A5A808A
:103590000623FB560293002B17DA394805AB9A46EF
:1035A0009880029A9A71DD71019A0792381D210064
:1035B000FFF7CEFEB880BE71254B720092199200C3
:1035C0009B18524613CA13C39FE7381DFFF7A8FE86
:1035D00001007000801980001D4BC0180430FFF7F7
:1035E000B7FEDBE705AF1D4B3B801D49730002931F
:1035F0009B199B00164A90461A0042440392901C65
:10360000FFF7A6FE7880039A101D5146FFF7A0FE33
:10361000B8801C4B52464146521A524153431B0D2F
:10362000BB71FD71019A0792029B9B199B00434459
:1036300007CF07C3114B52461380813B53800123B0
:103640001C43A04661E7C046240100D0CD6D022096
:10365000740D002000ED00E0C101001000A1FFFF8B
:10366000A40D002001BDFFFFA0450110985D0110D1
:10367000F4440110C8450110F04501100148000054
:1036800001BD0000AAAA000070B505000C00FFF7FC
:1036900035FEAB089B00C218116803232B40DB00EA
:1036A000FF20984081439C402143116070BD000081
:1036B000F8B5012202432C4BD31A2F2B28D8EFF355
:1036C0000583002B2AD0EFF3108472B627490968CE
:1036D0000029FBD0BFF35F8F234D25490600761BE1
:1036E00076417143090D4DB2224989689B00C95842
:1036F000914219D00021032930D81B4B4A0052189F
:1037000092009B189B795BB2AB421DD00131F2E76E
:10371000194B1A4A1A481B4904F0A0F81A4B174AC9
:1037200017481A4904F09AF8124A92681849D15079
:10373000184B1A7882711D70BFF35F8F0B4B0022FC
:103740001A6084F31088F8BD074B4A005618B6007B
:103750009E19FF27B771104AB280E9E70F4B074A5D
:1037600007480F4904F07AF8740D0020240100D0B6
:10377000AAAA000000ED00E074460110605D01108F
:10378000F44401107F0200009C46011082020000F8
:10379000C1010010CD6D022001BDFFFFA846011040
:1037A0009302000010B582B00100074C074B009354
:1037B000052300222000FFF734FD002801DB1F2332
:1037C000181A02B010BDC046D56D0220B0460110D7
:1037D000024B9C4661448900016070474000003400
:1037E00010B50400FFF746FD01002000FFF7F0FFD1
:1037F00001235B426360BFF35F8F10BD10B504000F
:10380000FFF738FD01002000FFF7E2FF01235B42D4
:10381000636000232372BFF35F8F10BD10B50D4CA2
:1038200009E00D4B0D4A0E481A2104F017F820004C
:10383000FFF7D6FF08340B4B9C4209D22368002BBC
:10384000F5D0012BEDD12000FFF7D8FF0C34F2E7C3
:1038500010BDC04640150020CC460110F05D01109F
:10386000EC46011050150020034B9C466144890032
:103870000160BFF35F8F70474000003410B5040053
:103880000120FFF705FD01002000FFF7EDFF10BD4F
:1038900030B5846A151B0B1D9B001B581B1B9D42DA
:1038A00004D3046A01238B40234202D104318900EE
:1038B0000A5030BD0004084370470000F0B5DE46F2
:1038C00057464E464546E0B587B0EFF305830322E1
:1038D0001A409246AE4B9200D7583B78534507D1D9
:1038E0000123524693409946AA4B4A461A6025E165
:1038F000A94BAA4AAA48922103F0B0FF7A69730043
:103900009B19DB009046984443469C68DD68A548B7
:1039100000F0BCFB001BA941002900DA16E1002DD4
:1039200074DB43461B699B469F4B9B454FD0082346
:10393000F85E4346598889B2FFF7BCFF4346596990
:10394000D847029003910299039A0B001000134389
:103950005CD013000A00002847DAA41A9D410094A5
:1039600001954346009C019D9C60DD600021595EED
:10397000002900DAEAE078694B005B18DB00C31825
:103980009A68DB68A41A9D41002D00DADEE03981D7
:103990003D000835844604912A000597B346009EF1
:1039A000019F049B002B2ADB0023D45E63001B19BC
:1039B000DB0063449C68DD6830003900001BA941CE
:1039C00000291CDB1A000021595E0491E9E74346F7
:1039D0005B699B461B6958469847002816D05B4692
:1039E0001A685B6802920393ADE76E4800F04EFBE5
:1039F000029B039C1B184C4100930194B1E704996E
:103A0000059F5E464346198016809FE0434600228C
:103A10009B5E3B813A69EFF3108372B6116800290F
:103A2000FCD0BFF35F8F02217A5E41460A807E8020
:103A30003A69BFF35F8F0021116083F3108885E03E
:103A40003969EFF3108372B60A68002AFCD0BFF31D
:103A50005F8FB88800B201225242BA803A69BFF340
:103A60005F8F0021116083F310880500BC461CE0C5
:103A7000049300229A5E002A0EDB049B0021595E0B
:103A80004B005B18DB0063449868D96834003D0044
:103A9000241A8D41002DEBDA04995D46009B9C466B
:103AA00044460D800023E55E2280002D12DB634634
:103AB00058696C006419E4000419A668E768614657
:103AC000083108229A5EAB46049163460093A046F3
:103AD0008446D0E767463EE00023BB7139000831D9
:103AE0000823F85E0EE001246442E5179460D56077
:103AF00008243B5F834204D00E8008243B5F138080
:103B000038813000431C29D07C6943001B18DB003E
:103B1000E218E65E53881BB2002BE4DB1100F0E7ED
:103B200022002B0051461F48FFF7B2FE1D4800F04F
:103B3000ADFA241A8D41002D22DC1FD0194B4A46C4
:103B40005A630823FE5E002E00DBD7E6BB881BB25B
:103B5000002B00DB74E7BB79002BBDD10823FA5E94
:103B6000002A0DDB796953009B18DB00CB189C6899
:103B7000DD68631CD4D16B1CD8D0D1E7002CDDD01C
:103B800040BF07B0F0BCBB46B246A946A046F0BD58
:103B90002C5800203C7005407C4701101C5E011031
:103BA000A847011000400540BD38001070B5040062
:103BB0000D0011000126AE4006622800FFF72EFC22
:103BC00001212800FFF702FC024B9C46644426605A
:103BD00070BDC04638200000F8B5CE46474680B5D7
:103BE0000600894690461F00C160FFF743FB154B56
:103BF0009C4660448000306143463370BBB27381A1
:103C0000D022120612787270012252423281B280A2
:103C10009B187380002406E0621E736965002D19ED
:103C2000ED005A530134BC42F6D3074B4246920092
:103C3000D650064A41464846FFF7B8FFC0BCB946D1
:103C4000B046F8BD400000342C580020BD380010AC
:103C500010B5084B1A68EFF3108172B61368002B89
:103C6000FCD0BFF35F8F034807F0B8F900200021B4
:103C700010BDC0466C5D002010B5064B1B69002BC3
:103C800001D0044810BD044B044A0548652103F0E7
:103C9000E5FDC046BC0D0020E4470110045E0110A4
:103CA000A8470110F8B504000569EFF3108072B65B
:103CB00029680029FCD0BFF35F8F0221665E656929
:103CC00071008919C9006D18002E02DB0027E95F19
:103CD00061802169BFF35F8F00270F6080F3108838
:103CE000002E2CDB0699296107996961AA60EB60B7
:103CF0006B8801335B04590C002B00D101216980D2
:103D00003000FFF7D7FD2169EFF3108372B60A6820
:103D1000002AFCD0BFF35F8FA2882A80A680226988
:103D2000BFF35F8F0021116083F31088E36821786F
:103D300001228A4003498C4663441A60F8BD012081
:103D40004042FBE73C20000070B582B00600140042
:103D50001D0008AB1B78002B07D100F0C9F9220029
:103D60002B00121A8B41002B0ADB079B0193069B49
:103D7000009322002B003000FFF794FF02B070BDCB
:103D80000020FBE7F0B5C64600B584B005008846C4
:103D900016001F000AAB1C78FFF76EFF0294019714
:103DA00000962A004346FFF7CFFF04B080BCB84618
:103DB000F0BD000030B504000A1443899A422EDA9F
:103DC000406953009B18DB00C3182569EFF310828C
:103DD00072B628680028FCD0BFF35F8F588885B280
:103DE0000904090C884212D000202369BFF35F8FB9
:103DF0000021196082F31088002811D0E36821782F
:103E000001228A4007498C4663441A6008E006494B
:103E1000294389B259800123A3710120E5E70020DD
:103E200030BDC0463C2000000080FFFF10B50400FC
:103E3000FFF722FF2100FFF7BDFF10BD407870475C
:103E4000F0B583B006000F00EFF30583002B1AD105
:103E500096246442E517A4197D418D4202D803D10E
:103E6000844201D90024002500F042F922002B00F1
:103E7000121A8B41002B0BDC08D03000390000F007
:103E800049F903B0F0BD1348FFF77EF9002AF4D0DA
:103E9000114A0023009320002900FFF773FF002838
:103EA0000DDAEAE70D4B1A68EFF3108172B613686A
:103EB000002BFCD0BFF35F8F084807F02BF8084BAE
:103EC0005B6A9D42EED80649896AA142D5D29D42DD
:103ED000D3D1E7E708480110513C00106C5D002089
:103EE0000040054070B504000D0000F001F9001914
:103EF0006941002902DBFFF7A3FF70BD01204042AA
:103F00000049F8E7FFFFFF7F10B5FA229200002377
:103F1000002102F0F3F9FFF7E5FF10BDF0B5CE4642
:103F2000474680B583B005000C00EFF30583002BF6
:103F300015D03F4B5B6A8B4209D33D4A926A82425D
:103F40000BD28B4201D0012002E0002000E00020D3
:103F500003B0C0BCB946B046F0BD0120F8E7FFF79A
:103F60008BFEC3689946037898462E002700484682
:103F700000F08CF802000B00B61A9F414346043350
:103F80009B004A469B581B1A0022BA420FDC0CD0F9
:103F900020BF274B5B6A9C422DD8254A926AAA42D1
:103FA0002BD29C4225D00120D2E7B342F0D9214A3E
:103FB0000023009328002100FFF7E4FE00281EDD07
:103FC0001B4B5B6A9C4205D8194A926AAA4202D2EC
:103FD0009C4200D120BFFFF729FF154B5B6A9C4232
:103FE00021D8134A926AAA421FD29C4219D00120BA
:103FF000AEE70020ACE70020AAE70120A8E70C4BC1
:104000005B6A9C4209D80A4A926AAA4207D29C4239
:1040100001D001209CE700209AE7002098E70120CA
:1040200096E7002094E7002092E7012090E7C04641
:1040300000400540513C00100048704700400540DA
:1040400010B50B4B1B69002B04D00A480A21FFF75F
:10405000BFFB10BDFFF7F0FF0400032100F00CF8D8
:104060000348102303222100FFF7B6FDEDE7C04609
:10407000BC0D00206C5D002010B5024A0248FFF71D
:10408000B7F810BD58480110BC2500200200436A53
:10409000906A1900536A9942FAD17047416A00E068
:1040A000416A9942FCD300E0416A994202D1816A97
:1040B0009142F9D37047F0B5C64600B5804614006A
:1040C0001D00FFF7E3FF06000F0022002B009219EE
:1040D0007B41994202D804D1904202D90122524236
:1040E000D3174046FFF7DAFF80BCB846F0BD0000AA
:1040F00010B50248FFF7CAFF10BDC046004005409A
:1041000010B502000B000248FFF7D5FF10BDC046F6
:104110000040054010B502000B000248FFF7BEFF4B
:1041200010BDC04600400540074B98420AD01623F8
:1041300001229A40054B1A60054B1B6811009943F8
:10414000FAD170471723F3E70080034000F00040E6
:1041500008C0004070B5046BE30701D4200070BDB7
:104160000B4BC3180B4A1A60456A836AAD01ED1800
:10417000AD02062000F02CF9074900F0D3FB010046
:10418000280000F0CFFB0021FFF7BAFFE6E7C046AA
:1041900030300000010300004E0E000070B5040036
:1041A0000E001500FFF7D6FFE36A5E403540024B74
:1041B000E3181D60206370BD2C10000070B5050071
:1041C0000C00062000F004F9C000210000F0AAFB5A
:1041D0000130C60907D00E4B9E4215D84008340066
:1041E0003F26064000E001246C62AE6200220021FE
:1041F0002800FFF7D3FF062000F0EAF88000A101B5
:10420000891900F08FFB70BD0026024CECE7C04618
:10421000FEFF0000FFFF000010B505394901013A1B
:10422000D2000A43002B07D002210A43012B01D000
:10423000002102E0023100E0002111436E22FFF76D
:10424000ADFF10BD002909D00A22064B9C466044F0
:1042500043425841044B4000C252704780225200F2
:10426000F3E7C0460080FCBF7869002070B5040009
:104270000D00062000F0ACF800281ED0104B9C4228
:104280001CD01622012393400E4A13602000FFF732
:104290004BFF00212000FFF7D5FF29002000FFF78A
:1042A0008DFFE26A70235A400E331340064AA2186B
:1042B0001360064B23630323A36470BD1722E1E759
:1042C0000080034000E000402C10000001030000CB
:1042D000F8B5D646474680B506000D00170098464B
:1042E00044002418A400294B9C4664446368089A3F
:1042F000934200D26260331FDBB29A46012B2ED963
:1043000080221201C0239B01E3181A60204BB200E7
:10431000D158002907D0586900F004FB0130430050
:104320001B18033BFDD27F0123685F40E0233B4025
:1043300080225201A21813605346012B1AD9802300
:104340009B01E318802212011A60089B6360104BE6
:10435000B6004246F250C0BCBA46B046F8BD012D88
:10436000CED10322C0239B01E3181A60A368DB07A8
:10437000FCD5D8E72168694003230B401360A3688C
:104380000122AA401A42FAD0D9E7C0460080004074
:10439000C0250020F0B583B005000E0017001800FE
:1043A000089900F0BFFA0300089A140200943A003A
:1043B00031002800FFF78CFF03B0F0BD10B582B0CC
:1043C000802464000094FFF783FF02B010BD00005A
:1043D000014B8000C0587047C025002010B5040074
:1043E0000D4B9B69DB05FBD40420FFF7F1FFFA219D
:1043F000890000F097FA084B18600A221A6100221F
:104400005A60013A9A605C61034B9B69DB06FBD5FD
:10441000014BD869400910BD80800040F0B5C64608
:1044200000B504000E0017001D00374800F07AFAAE
:104430008046364BFA18364B9A4239D8010038007C
:1044400000F070FA0200103A98235B009A4235D8C7
:104450006B1E062B38D8069B013B062B34D83F0930
:10446000474537D32D04069B1B031D432368002BB0
:1044700036DB284B9C4244D00C2201239340264A31
:104480001360264A1360264A1268190091430A1ED7
:10449000F9D12660A060234BE31821321A6022680C
:1044A000002AFCDAE56008221A6080BCB846F0BD3C
:1044B0001D4B1E4A1E48112103F0D0F91D4B1B4A0B
:1044C0001B48192103F0CAF91B4B184A18481C2134
:1044D00003F0C4F9194B154A1548232103F0BEF91E
:1044E00022683F231340B342C3D1A3681B051B0DB1
:1044F0008342BED1E368EE22D2021340AB42B8D170
:10450000D3E70D22B9E7C046001BB70080E84BD3C4
:1045100080F8A93200C0024000E0004000F00040F6
:1045200008C00040043000007C480110345E0110D7
:10453000CC480110104901102C4901107849011094
:10454000024B1A68024B5A607047C04688450020EB
:104550000080054010B5174B8022D2051A60164B1B
:10456000164A1A6000290AD0154BE022D2041A60BC
:10457000002809D1124B802212061A6010BD0D4B83
:10458000E022D2041A60F3E743011B1A9B001818BB
:1045900000010C4B186080235B04984202D3094B46
:1045A000094A1A60FFF7CCFF054B8022D2051A603A
:1045B000E4E7C04600B0054008200140FCFF0100D0
:1045C00000A0054088450020FFFFFF0010B5030054
:1045D00010000C4A8024E4051460002B0DD0012249
:1045E0001343094A094CD461094C5C40146251627E
:1045F00093620021FFF7AEFF10BD034B0022DA618A
:10460000F7E7C04600B0054000800540D3C007B0C2
:104610002D3FF84F80239B000B43014AD362704724
:104620000080054010B5010018231B881422108853
:10463000984710BD10B5010018231B88162210885A
:10464000984710BDF0B5C64600B507000E0000251E
:104650000123984600E00135B5420AD2AC003C196E
:104660002068FFF7DFFF20600028F4D10023984680
:10467000F1E7404680BCB846F0BD000070B50400CC
:104680000D000648FFF7CEFF0300002C03DB0120DE
:10469000A040290098470020FBE7C0465542000093
:1046A000074BAA2212011A608D225200DA60054BD4
:1046B000054A1A60024B5B68002BFBDA7047C04664
:1046C000004002400060024000B0FA0010B5040053
:1046D00001E008CC9847024B9C42FAD310BDC0467B
:1046E000143E01107047000010B50248FFF7EEFFBE
:1046F00010BDC046D83D0110054B064A1A60064B56
:10470000064A1A60064B1A68044B9343FAD1704765
:1047100000E00040BFCDFBFE00F00040FE7F3C000B
:1047200008C00040044BDB6C002B03D1034B8022FC
:10473000D2021A607047C046000011504C20115040
:10474000044B054A1A60054B1B68DB43DB01FAD1B9
:104750007047C04600F00040FFFFFF0108C0004066
:10476000034B40229A675A671A67DA667047C04659
:1047700000F0014010B5FEF79DFD10BD10B50C4ACC
:104780000C4BD21A92101400302A00D93022920019
:104790000948084901F02AFF04E0084A064BA10035
:1047A000CA5001342F2CF8D9034B054A936010BD31
:1047B000C00100100001001000000020C101001025
:1047C00000ED00E070B50420FFF702FE064900F09E
:1047D000A9F805000024002C00DD70BDE0B229001E
:1047E000FFF718FF0134F6E740420F0030B583B001
:1047F000274B00229A67FFF753FF264B01221A60CE
:10480000234B5B6C012BFBD1234B03221A60204B03
:104810009B6B012BFBD10133009304331F4A012111
:104820001F48FFF7FBFD052300931E4A01211E4888
:10483000FFF7F4FD1D4B002202210420FFF7BEFD0F
:104840001B4D2B00002201210520FFF7B7FD194C5D
:104850002300002200210720FFF7B0FD23000022E3
:1048600000210820FFF7AAFD8023DB00009323002E
:10487000002200210920FFF78DFD2B0000220021DE
:104880000620FFF79BFDFFF79DFF03B030BDC0463C
:10489000008000403CB0004030B00040002F68591C
:1048A00000800240008C864700C00240001BB70019
:1048B00040597307006CDC0201480421014B184782
:1048C000E00D002045460010014B9B681847000092
:1048D000E00D0020124A936F9B0815D29066D166B6
:1048E000002905D0FFE7FFE7FFE7516F106F704722
:1048F00004B580210906C2175140002800D0C843E2
:104900000FF00AFA002104BDF0B5146E556E576F12
:10491000166FFFF7E3FF1466556657671667F0BD1D
:10492000000000D0114A936F9B0813D210665166A5
:10493000002905D0FFE7FFE7FFE7516F106F7047D1
:1049400004B5002801D00020C0430FF0E5F9002194
:1049500004BDC046F0B5146E556E576F166FFFF765
:10496000E5FF1466556657671667F0BD000000D076
:1049700094464A4A926F9208624601D228E0C046A5
:10498000F0B5464E346E756E776F366F00F020F8D6
:104990009446424A14665566576716676246F0BDEC
:1049A00094463E4A926F9208624601D254E0C04655
:1049B000F0B53A4E346E756E776F366F00F04CF886
:1049C0009446364A14665566576716676246F0BDC8
:1049D000002B24DB11D000293EDA00B5C943404248
:1049E00000D1013100F038F8C943404200D1013113
:1049F000DB43524200D1013300BD002AEBD1002835
:104A000001D1002905D00020C90FC90701D1C04339
:104A1000410800B50FF068F90022002300BD00B581
:104A200000290ADBDB43524200D1013300F014F8C5
:104A3000C943404200D1013100BDC943404200D1C9
:104A40000131DB43524200D1013300F005F8DB4372
:104A5000524200D1013300BD002923D1002B18D1CF
:104A6000002A0CD0BC460D4F38667A660021002320
:104A7000FFE7FFE7FFE77A6F386F67467047002868
:104A800001D00748010000B50FF02EF900220023E5
:104A900000BD02000B00002000217047000000D084
:104AA000FFFFFFFF002B00D0BFE0130C28D1002A2E
:104AB000E7D080B4114F39667A66FFE7FFE730B47C
:104AC000040C7B6F396F1B0423433B667A66FFE758
:104AD000FFE7FFE7C04684B27B6F3D6F1B042343B3
:104AE0003B667A66FFE7FFE7C04600232C042D0CE7
:104AF0007A6F386F00196941B0BC7047000000D070
:104B0000F0B594460025140E01D112020835140F99
:104B100001D112010435940F01D192000235D40F56
:104B200001D152000135D40B0134254F7C66254C50
:104B30003C660E0C93B2FFE7FFE7FFE73C6F66436E
:104B4000360C7703BE467343DF0B5B04C01AB941D2
:104B5000130C7343DB18C91ACE086643360CB644EF
:104B600093B273431F0F1B01C01AB941130C734357
:104B70001F0B1B05C01AB941860D8F023E436643C9
:104B8000360C092D24DB520A7243801A7703460A39
:104B90006643360C16235B1BDE40DF40BF196446BC
:104BA0006643821B7046043506330100D940A84095
:104BB000C01900D30131A24206D20023F0BD00008B
:104BC000000000D0FFFFFFFF121B0130F3D3F1E71D
:104BD00009277F1BFE406446A2B27243801A00D2AE
:104BE0000139220C7243130C1204821A99410B00F2
:104BF0007046043513370100F940A840801900D3EE
:104C00000131002B02D1A2420AD2F0BD013000D303
:104C10000131121BFAD2013BF8D1A24200D2F0BD01
:104C2000013000D30131121BF7E7F0B51C0C00D0A6
:104C300080E00CB400251C0A04D11B02160E33437D
:104C4000120208351C0B04D11B01160F334312014D
:104C500004359C0B04D19B00960F33439200023520
:104C6000DC0B02D192185B4101351C00971864419E
:104C70000134464F7C66464C3C660E0CFFE7FFE76E
:104C8000FFE7C0463C6F6643360C7703BE4697B2DB
:104C90007743C01B00D20139C01B00D201399FB23B
:104CA0007743C91BC91B170C77437E04FF0B801B7E
:104CB000B941CE086643360C0C2D33DBB644120BDB
:104CC0001F053A431B0B97B27743C01B00D2013933
:104CD0009FB27743C91B170C77433E043F0C801BE0
:104CE000B941860D8F023E43664329277F1BFE4054
:104CF0000C3D7746AF40BF1930BCA2B2ABB2724395
:104D00007343801A9941220C7243130C1204801AC7
:104D1000994102000B000137001BA941F9D2781E0E
:104D20000021F0BD0C277F1BFE4077467F0BAF4074
:104D3000FF19E0E700245D1C07D0144F7D6639663B
:104D4000FFE7FFE7FFE7FFE73C6F95B29EB26543E1
:104D50006643401BB141150C1E0C65436643360487
:104D60002F0C3E432D04401BB141994204D2020056
:104D70000B0020000021F0BD01D19042F7D3801A32
:104D8000994101349942F2D3F6E70000000000D0C7
:104D9000FFFFFFFF48404140484018B41B4B5B6891
:104DA000FC46019308BD04DF3758001018B4174BB8
:104DB0001B68FC46019308BD00DF41580010944673
:104DC000134A926F920809D2624618B40F4BDB68FF
:104DD000FC46019308BD0CDFF95A00100C4AF0B5EF
:104DE000146E556E576F166F6246FFF7EEFF084A56
:104DF0001466556657671667F0BD18B4034B9B6879
:104E0000FC46019308BD08DF9D590010E45A0020BC
:104E1000000000D0FFB550404240504059404B4048
:104E2000594000E0FFB5154F4C00640D03D0BC4263
:104E300004D10C0314D80020090D09055C00640D91
:104E400003D0BC4204D11C030AD800221B0D1B0551
:104E500001264B4009D44B4003D58B4200D18242FE
:104E6000FFBD9942FCD19042FFBD0B43DB180343C9
:104E70001343F5D0C9434918FFBD0000FF070000E8
:104E800000B5FFF7CFFF01D0002000BD012000BD1D
:104E900000B5FFF7C7FF804100BDC04600B5FFF772
:104EA000C1FF01D9002000BD012000BD00B5FFF702
:104EB000B1FF01D9002000BD012000BD00B5FFF702
:104EC000A9FF804100BD012040054A00121804D806
:104ED0005A00121801D800207047012070470000C6
:104EE0000021002805D17047C1174840401AFAD068
:104EF000C90713B5064B1B6898470CBC441CA2405D
:104F00001005120B0349091B09051943114310BD74
:104F1000685C00201F04000010B54C00620D802367
:104F2000D218DB00D21A5B057E2A10DD9E3A13DA16
:104F3000CC170903490819435242D1406400013497
:104F40001532202A05DAD0400843604310BD002006
:104F500010BD0846604310BDC80FC018013810BD11
:104F600018B4044B5B6AFC46019308BD24DF515E14
:104F700000100000E45A002018B4044BDB6DFC461E
:104F8000019308BD5CDF5D5F00100000E45A002063
:104F9000C94211D300B549004908002200F018F8B1
:104FA000002904D4002240428A41114600BD8021DC
:104FB0000906002000BD000018B4044BDB6EFC465F
:104FC000019308BD6CDF5F5E00100000E45A002012
:104FD00018B4044B9B6FFC46019308BD78DF7B5EE1
:104FE00000100000E45A002018B4044BDB6FFC46AC
:104FF000019308BD7CDFE95E00100000E45A002048
:1050000018B4044B9B69FC46019308BD18DFC55CCE
:1050100000100000E45A002018B4044BDB6CFC467E
:10502000019308BD4CDF956000100000E45A002099
:1050300018B4044B1B6DFC46019308BD50DF316171
:1050400000100000E45A002070B513231C78012CD6
:1050500012D0012C12DC214B214A93642148FFF726
:10506000E1FA214B186070BD1C491D4A980081501F
:1050700001331F2BF8D9ECE70023FAE71B48FFF7B1
:10508000D9FA05001A48FFF7D5FA023803789B00D1
:105090007F2B09DD12488022290001F0A7FA022C9B
:1050A00008D0022CDADCD6E7124B134A134833211E
:1050B00002F0D4FB124B1A88B5231B029A4209D185
:1050C000104B1A88104B9A4204D1104B1A88104B7F
:1050D0009A42E6D00020FEF757F8C046FD57001070
:1050E000E45A00204C330000685C00205344000068
:1050F0005346000094490110405E0110D849011048
:1051000054380000D8380000494600009C380000A0
:105110005946000030B50B0D5B055C0D002B14D01B
:105120000D4B9C4211D01419002C09DD0B4B9C42F5
:105130000CDDC90FC907002409480843050002E037
:105140000024C90FCD072000290030BD002415051B
:1051500024184D41F7E7C046FF070000FE07000096
:105160000000F07F30B50B0D5B055A0D002B1FD0F2
:10517000134BD2181ED434239B1A002B1CDD1C00A9
:10518000203C0CD401225242A240012464429C40A3
:105190000300A34391430B4310D1012009E02024D5
:1051A000E41A012252421500E5409A402A43ECE7F6
:1051B000012030BD0020FCE70120FAE70020F8E7DD
:1051C00001FCFFFF30B50B0D5B055B0D1B4A9B1807
:1051D0002CD43422D31A2BD41C00203C16D4353ABC
:1051E000A240012464429C400500A5432C000D0010
:1051F00095432A0022431DD1342B1DD01A00203A9A
:105200000DD40800D0400123184030BD2024E41AFA
:10521000012252421500E5409A402A43E1E720224C
:10522000D21A0C009440D8402043ECE70020ECE771
:105230000020EAE70020E8E70120E6E701FCFFFFA5
:1052400002000B00090D4905480D002907D005494A
:10525000884205D01803000B104343425841704761
:105260000020FCE7FF07000070B504000D001600E9
:10527000012A0ED0D20F92195210FFF7F5FF02004B
:105280000B00FFF7BAFDF60703D522002B00FFF74E
:10529000B4FD70BD10B5141E03DB2200FFF7E4FF60
:1052A00010BD02000B0000200249FFF788FD644298
:1052B000F3E7C0460000F03FF0B5D6464F464646FD
:1052C000C0B588B014001D000E0D7605760D674B35
:1052D000F718674A921BFFF71DFFFFF7A9FE654A03
:1052E000654BFFF76CFD0022644B00900191FFF7C6
:1052F000E5FD002809D00022614B00980199FFF7D5
:105300004CFD009001915F4BF718002F11D0002247
:105310005D4B20002900FFF7C9FD002815D0002FA4
:1053200010DB0020594908B0E0BCBA46B146A84697
:10533000F0BD22002B0000980199FFF75EFD00F000
:1053400065F9F0E700200021EDE70022504B200036
:105350002900FFF7A3FD002807D0002F02DB002063
:105360000021E0E700204949DDE72000290000F0A6
:1053700001F90490059102000B0020002900FFF7BD
:105380000CFD03000C001A220293039400F0EEF8C7
:1053900000F0F0F81A225242FFF7BCFE04000D00A4
:1053A00002000B0002980399FFF7F7FC06900791A3
:1053B00004980599FFF7B0FD8146010079438A46BC
:1053C0003800FFF791FD22002B0004900591FFF7B4
:1053D00014FD06000F0000F0CDF804000D00FFF7EB
:1053E0009BFD8046D04422002B0030003900FFF79F
:1053F000D4FC04000D00069A079B04980599FFF75A
:10540000FCFC02000B0020002900FFF7CFFC0490F9
:1054100005914846FFF768FD009A019BFFF7EDFCF8
:1054200004000D0000F0A6F806000F00FFF774FD61
:10543000804432003B0020002900FFF7AEFC049AB4
:10544000059BFFF7B3FC04000D00029A039B009834
:105450000199FFF7D2FC22002B00FFF7A7FC00F018
:10546000D5F84246FFF756FE5DE7C04601FCFFFF58
:10547000FF030000EF39FAFE422EE63F0000E03F56
:105480000000F03F02FCFFFF0000B0400000F07F92
:105490000000B0C0F0B5C64600B582B004000D00F3
:1054A00016001F00019000291DDA10001900FFF7F7
:1054B00089FE00280ED0200080231B06E918320048
:1054C0003B00FFF7E7FF80242406091902B080BCE7
:1054D000B846F0BD019880231B06E91832003B0056
:1054E000FFF7D8FFF2E710001900FFF715FD80461F
:1054F00020002900FFF7A4FE00280CD14346002B12
:1055000028D02033402B1FD932003B002000290037
:10551000FFF7D2FEDAE72A0D5205520D0F4B9C46DB
:10552000624480231B01984505DA0D4B984504DA47
:105530000B4B984601E00B4B984643465A430020DC
:105540000949FFF7E7FDC1E7424620002900FFF7C0
:10555000A1FEBBE700200449B8E7C04601FCFFFFFD
:1055600000F8FFFFFF0700000000F03F10B5FFF755
:10557000D1FD10BD70B50B0D5B055B0D214A944646
:1055800063445A1C24DB5A1C28D03422D21A002A25
:105590001DDD3324E41A2500203D26D40126AE402B
:1055A00033000125A5402A0012184B412500203D5B
:1055B00021D40226AE4031000225A5402800002556
:1055C00044428D411600264030002B40190070BD2A
:1055D0000022C90FCB0710001900F8E7CB0FDB073B
:1055E0000020094A1A431100F1E720252D1B01264E
:1055F000EE403300D5E720252D1B0226EE4031007A
:10560000DAE7C04601FCFFFF0000F03F70B5040080
:105610000D000A0D194B9A4229D00022184BFFF7B2
:105620003DFC002826D10022164B20002900FFF760
:105630003DFC002802D0002013491DE02000290075
:10564000FFF798FFFFF768FC0600FFF74DFC02002C
:105650000B0020002900FFF7A0FB0C4A0C4BFFF7C2
:10566000CCFBFFF7D9FC3200FFF754FD04E000202B
:10567000002101E00020002170BDC046FF0F0000A6
:105680000000B0C00000B0400000F07FEF39FAFE2B
:10569000422EE63FF8B5CE46474680B506000F00DD
:1056A00014001D0000224E4BFFF7EAFB002821D119
:1056B0002B0D98465B055A0D9146002B1AD00022FF
:1056C000484B30003900FFF7DBFB002802D0464B87
:1056D00099456DD03A0D5305590D002B1DD1002D64
:1056E0000EDB20002900FFF76DFD002863D030009D
:1056F000390001E000203A49C0BCB946B046F8BDC7
:1057000020002900FFF75EFD002857D0FB0FDB07C4
:105710000020364A1A431100EEE7334B9A4213D069
:10572000334B9A4215D0304B984527D0304B984593
:105730002AD020002900FFF715FD00282AD1002FCC
:105740002FDA00202949D7E7002D3ADA002000217E
:10575000D2E7002D08DB20002900FFF733FD0028E9
:1057600032D000202349C7E720002900FFF72AFD97
:1057700000282CD0002080210906BDE71E4B99424D
:1057800028DC00200021B7E71B4B994225DC0020D4
:105790001649B1E722002B0030003900FFF77AFEEE
:1057A000AAE722002B0030003900FFF785FDA3E7B0
:1057B00000200B49A0E7002000219DE700200B49B5
:1057C0009AE70020094997E70020084994E700205C
:1057D000002191E7002005498EE7002000218BE79A
:1057E0000000F03F0000F0BFFF0700000000F07F66
:1057F000FF0F00000000F0FFFE03000007B5604649
:10580000002800D100BE01880A0A0230DF2AFAD13E
:10581000C9B2820804D3028840880004104300E023
:105820000068024A5050039007BD0000E45A00206F
:105830000FB403BC0CBCF0B50124E407634000E0E6
:10584000F0B50C0DCF0F661E3605891B640503D31A
:10585000C943404200D30131640D03D0661CF60AEF
:1058600007D0E41B00207F00791C89078912803C47
:1058700024031D0DDF0F6E1E36059B1B6D0503D324
:10588000DB43524200D301336D0D03D06E1CF60A88
:1058900007D0ED1B00227F007B1C9B079B12803DE5
:1058A0002D032F1B661B58D4A446202E46DA203722
:1058B0001400BC401D00BD40F24033412A43801813
:1058C0005941CB0F05D0C943C04300226442504127
:1058D000514162464D0D28D10D0D07D100281FD032
:1058E000241940414941013A0D0DF9D0640006D315
:1058F000013000D30131002C01D140084000013AB1
:105900000BD4941CE40A04D112051144DB0719449A
:10591000F0BDD907204B194300E0D9070020F0BDA6
:105920000029DDD1002CDBD1F0BD0132C6074008D3
:10593000CD0728434908002EE1D0D9E73C2E29DACB
:10594000203E40371400BC4000D00124F2401443F4
:105950001A00BB401C43D317ACE7AC46202F08DA33
:1059600020360400B4400D00B540F84039412843CA
:10597000A5E73C2F0CDA203F40360400B44000D0AD
:105980000124F84004430800B1400C43C117EAE782
:1059900010001900002494E70000F07FF0B50C0D12
:1059A000661E3605891BE60A6405640D02D0651C77
:1059B000ED0A04D0002001210905803C2403A446FF
:1059C0001C0D671E3F05DB1BE70A6405640D02D052
:1059D000651CED0A04D0002201231B05803C240332
:1059E0007740644497B484B296B27443070C7E4304
:1059F000150C6F4380B26843361802D301200004AF
:105A00003F183004350C00197D41844688B29AB2A3
:105A100050430C0C62431F0C7C438EB27E439219A0
:105A200002D301263604A4191604170C3618674150
:105A300001BC81B29AB25143040C62431B0C5C431B
:105A400080B25843121802D3012000042418100415
:105A5000130C401863412D185E410020474106BCDD
:105A600088B293B258430C0C6343120C544389B26E
:105A700051435B1802D301210904641819041A0C5C
:105A8000091862416D1856410020474118BCF902BF
:105A9000720D1143F0026A0D1043ED020A0D03D19D
:105AA0006D1940414941013B124E9B1B7600B342A8
:105AB0000ED26D0007D30130002671416646354392
:105AC00001D1400840001B05C918E4072144F0BD7E
:105AD0000BDA013306D1013004D101314F0D01D071
